{
  "contractName": "FoodDelivery",
  "abi": [
    {
      "constant": true,
      "inputs": [
        {
          "name": "",
          "type": "uint256"
        }
      ],
      "name": "foods",
      "outputs": [
        {
          "name": "name",
          "type": "string"
        },
        {
          "name": "price",
          "type": "uint256"
        },
        {
          "name": "avail",
          "type": "uint8"
        }
      ],
      "payable": false,
      "stateMutability": "view",
      "type": "function"
    },
    {
      "constant": true,
      "inputs": [
        {
          "name": "",
          "type": "address"
        }
      ],
      "name": "restaurantNames",
      "outputs": [
        {
          "name": "",
          "type": "string"
        }
      ],
      "payable": false,
      "stateMutability": "view",
      "type": "function"
    },
    {
      "constant": true,
      "inputs": [],
      "name": "paused",
      "outputs": [
        {
          "name": "",
          "type": "bool"
        }
      ],
      "payable": false,
      "stateMutability": "view",
      "type": "function"
    },
    {
      "constant": true,
      "inputs": [
        {
          "name": "",
          "type": "address"
        }
      ],
      "name": "successfulDelivery",
      "outputs": [
        {
          "name": "",
          "type": "uint256"
        }
      ],
      "payable": false,
      "stateMutability": "view",
      "type": "function"
    },
    {
      "constant": true,
      "inputs": [
        {
          "name": "",
          "type": "uint256"
        }
      ],
      "name": "foodToRestaurant",
      "outputs": [
        {
          "name": "",
          "type": "address"
        }
      ],
      "payable": false,
      "stateMutability": "view",
      "type": "function"
    },
    {
      "constant": true,
      "inputs": [],
      "name": "owner",
      "outputs": [
        {
          "name": "",
          "type": "address"
        }
      ],
      "payable": false,
      "stateMutability": "view",
      "type": "function"
    },
    {
      "constant": true,
      "inputs": [
        {
          "name": "",
          "type": "uint256"
        }
      ],
      "name": "orders",
      "outputs": [
        {
          "name": "foodId",
          "type": "uint256"
        },
        {
          "name": "escrowBalance",
          "type": "uint256"
        },
        {
          "name": "status",
          "type": "uint8"
        }
      ],
      "payable": false,
      "stateMutability": "view",
      "type": "function"
    },
    {
      "constant": true,
      "inputs": [
        {
          "name": "",
          "type": "address"
        }
      ],
      "name": "restaurantFoodCount",
      "outputs": [
        {
          "name": "",
          "type": "uint256"
        }
      ],
      "payable": false,
      "stateMutability": "view",
      "type": "function"
    },
    {
      "constant": false,
      "inputs": [
        {
          "name": "newOwner",
          "type": "address"
        }
      ],
      "name": "transferOwnership",
      "outputs": [],
      "payable": false,
      "stateMutability": "nonpayable",
      "type": "function"
    },
    {
      "payable": false,
      "stateMutability": "nonpayable",
      "type": "fallback"
    },
    {
      "anonymous": false,
      "inputs": [
        {
          "indexed": false,
          "name": "foodId",
          "type": "uint256"
        },
        {
          "indexed": false,
          "name": "name",
          "type": "string"
        },
        {
          "indexed": false,
          "name": "restaurant",
          "type": "address"
        }
      ],
      "name": "NewFood",
      "type": "event"
    },
    {
      "anonymous": false,
      "inputs": [
        {
          "indexed": false,
          "name": "orderId",
          "type": "uint256"
        },
        {
          "indexed": false,
          "name": "foodId",
          "type": "uint256"
        },
        {
          "indexed": false,
          "name": "price",
          "type": "uint256"
        },
        {
          "indexed": false,
          "name": "customerAddress",
          "type": "address"
        },
        {
          "indexed": false,
          "name": "restaurantAddress",
          "type": "address"
        }
      ],
      "name": "NewOrder",
      "type": "event"
    },
    {
      "anonymous": false,
      "inputs": [
        {
          "indexed": false,
          "name": "customerAddress",
          "type": "address"
        }
      ],
      "name": "NewCustomer",
      "type": "event"
    },
    {
      "anonymous": false,
      "inputs": [
        {
          "indexed": false,
          "name": "restaurantAddress",
          "type": "address"
        }
      ],
      "name": "NewRestaurant",
      "type": "event"
    },
    {
      "anonymous": false,
      "inputs": [
        {
          "indexed": false,
          "name": "orderId",
          "type": "uint256"
        }
      ],
      "name": "OrderFinished",
      "type": "event"
    },
    {
      "anonymous": false,
      "inputs": [
        {
          "indexed": true,
          "name": "previousOwner",
          "type": "address"
        },
        {
          "indexed": true,
          "name": "newOwner",
          "type": "address"
        }
      ],
      "name": "OwnershipTransferred",
      "type": "event"
    },
    {
      "constant": false,
      "inputs": [],
      "name": "registerCustomer",
      "outputs": [],
      "payable": false,
      "stateMutability": "nonpayable",
      "type": "function"
    },
    {
      "constant": false,
      "inputs": [
        {
          "name": "_restaurantName",
          "type": "string"
        }
      ],
      "name": "registerRestaurant",
      "outputs": [],
      "payable": false,
      "stateMutability": "nonpayable",
      "type": "function"
    },
    {
      "constant": true,
      "inputs": [
        {
          "name": "_restaurantAddress",
          "type": "address"
        }
      ],
      "name": "getFoodByRestaurant",
      "outputs": [
        {
          "name": "",
          "type": "uint256[]"
        }
      ],
      "payable": false,
      "stateMutability": "view",
      "type": "function"
    },
    {
      "constant": true,
      "inputs": [
        {
          "name": "_customerAddress",
          "type": "address"
        }
      ],
      "name": "getOrderByCustomer",
      "outputs": [
        {
          "name": "",
          "type": "uint256[]"
        }
      ],
      "payable": false,
      "stateMutability": "view",
      "type": "function"
    },
    {
      "constant": true,
      "inputs": [
        {
          "name": "_restaurantAddress",
          "type": "address"
        }
      ],
      "name": "getOrderByRestaurant",
      "outputs": [
        {
          "name": "",
          "type": "uint256[]"
        }
      ],
      "payable": false,
      "stateMutability": "view",
      "type": "function"
    },
    {
      "constant": false,
      "inputs": [
        {
          "name": "_name",
          "type": "string"
        },
        {
          "name": "_price",
          "type": "uint256"
        }
      ],
      "name": "newFood",
      "outputs": [],
      "payable": false,
      "stateMutability": "nonpayable",
      "type": "function"
    },
    {
      "constant": false,
      "inputs": [
        {
          "name": "_foodId",
          "type": "uint256"
        },
        {
          "name": "_newPrice",
          "type": "uint256"
        }
      ],
      "name": "changePrice",
      "outputs": [],
      "payable": false,
      "stateMutability": "nonpayable",
      "type": "function"
    },
    {
      "constant": false,
      "inputs": [
        {
          "name": "_foodId",
          "type": "uint256"
        }
      ],
      "name": "soldIn",
      "outputs": [],
      "payable": false,
      "stateMutability": "nonpayable",
      "type": "function"
    },
    {
      "constant": false,
      "inputs": [
        {
          "name": "_foodId",
          "type": "uint256"
        }
      ],
      "name": "soldOut",
      "outputs": [],
      "payable": false,
      "stateMutability": "nonpayable",
      "type": "function"
    },
    {
      "constant": false,
      "inputs": [
        {
          "name": "_orderId",
          "type": "uint256"
        }
      ],
      "name": "orderPrepared",
      "outputs": [],
      "payable": false,
      "stateMutability": "nonpayable",
      "type": "function"
    },
    {
      "constant": false,
      "inputs": [
        {
          "name": "_orderId",
          "type": "uint256"
        }
      ],
      "name": "orderUnavailable",
      "outputs": [],
      "payable": false,
      "stateMutability": "nonpayable",
      "type": "function"
    },
    {
      "constant": false,
      "inputs": [
        {
          "name": "_foodId",
          "type": "uint256"
        }
      ],
      "name": "newOrder",
      "outputs": [],
      "payable": false,
      "stateMutability": "nonpayable",
      "type": "function"
    },
    {
      "constant": false,
      "inputs": [
        {
          "name": "_orderId",
          "type": "uint256"
        }
      ],
      "name": "cancelOrder",
      "outputs": [],
      "payable": false,
      "stateMutability": "nonpayable",
      "type": "function"
    },
    {
      "constant": false,
      "inputs": [
        {
          "name": "_orderId",
          "type": "uint256"
        }
      ],
      "name": "finishOrder",
      "outputs": [],
      "payable": false,
      "stateMutability": "nonpayable",
      "type": "function"
    },
    {
      "constant": false,
      "inputs": [],
      "name": "deposit",
      "outputs": [
        {
          "name": "",
          "type": "uint256"
        }
      ],
      "payable": true,
      "stateMutability": "payable",
      "type": "function"
    },
    {
      "constant": false,
      "inputs": [
        {
          "name": "_withdrawAmount",
          "type": "uint256"
        }
      ],
      "name": "withdraw",
      "outputs": [
        {
          "name": "remainingBal",
          "type": "uint256"
        }
      ],
      "payable": false,
      "stateMutability": "nonpayable",
      "type": "function"
    },
    {
      "constant": true,
      "inputs": [],
      "name": "myBalance",
      "outputs": [
        {
          "name": "",
          "type": "uint256"
        }
      ],
      "payable": false,
      "stateMutability": "view",
      "type": "function"
    },
    {
      "constant": false,
      "inputs": [],
      "name": "pause",
      "outputs": [],
      "payable": false,
      "stateMutability": "nonpayable",
      "type": "function"
    },
    {
      "constant": false,
      "inputs": [],
      "name": "unpause",
      "outputs": [],
      "payable": false,
      "stateMutability": "nonpayable",
      "type": "function"
    },
    {
      "constant": false,
      "inputs": [
        {
          "name": "_orderId",
          "type": "uint256"
        }
      ],
      "name": "forceFinishOrder",
      "outputs": [],
      "payable": false,
      "stateMutability": "nonpayable",
      "type": "function"
    },
    {
      "constant": false,
      "inputs": [
        {
          "name": "_orderId",
          "type": "uint256"
        }
      ],
      "name": "forceCancelOrder",
      "outputs": [],
      "payable": false,
      "stateMutability": "nonpayable",
      "type": "function"
    }
  ],
  "bytecode": "0x60806040526000600d60006101000a81548160ff021916908315150217905550336000806101000a81548173ffffffffffffffffffffffffffffffffffffffff021916908373ffffffffffffffffffffffffffffffffffffffff16021790555061317d8061006e6000396000f300608060405260043610610180576000357c0100000000000000000000000000000000000000000000000000000000900463ffffffff16806314d3f10e14610192578063249cb8391461024c57806327357011146103085780632c27017d1461031f5780632e1a7d4d146103b75780633f4ba83a146103f85780634b0f58d21461040f57806351459ac1146104a7578063514fcac7146104d45780635aa6c7dd146105015780635c975abb1461053c5780638456cb591461056b57806384c8eac81461058257806387656592146105af578063882c6685146106065780638da5cb5b146106735780639cc0ee99146106ca578063a85c38ef1461070f578063ac7b913f14610764578063af4abbf514610791578063b3de019c146107be578063bd305427146107f5578063bf0881eb14610822578063c9116b691461084f578063d0e30db01461087a578063dae8912414610898578063dbab2ca714610930578063deb2ec6a14610987578063f012be38146109b4578063f2fde38b146109e1575b34801561018c57600080fd5b50600080fd5b34801561019e57600080fd5b506101bd60048036038101908080359060200190929190505050610a24565b60405180806020018481526020018360ff1660ff168152602001828103825285818151815260200191508051906020019080838360005b8381101561020f5780820151818401526020810190506101f4565b50505050905090810190601f16801561023c5780820380516001836020036101000a031916815260200191505b5094505050505060405180910390f35b34801561025857600080fd5b5061028d600480360381019080803573ffffffffffffffffffffffffffffffffffffffff169060200190929190505050610b02565b6040518080602001828103825283818151815260200191508051906020019080838360005b838110156102cd5780820151818401526020810190506102b2565b50505050905090810190601f1680156102fa5780820380516001836020036101000a031916815260200191505b509250505060405180910390f35b34801561031457600080fd5b5061031d610bb2565b005b34801561032b57600080fd5b50610360600480360381019080803573ffffffffffffffffffffffffffffffffffffffff169060200190929190505050610cea565b6040518080602001828103825283818151815260200191508051906020019060200280838360005b838110156103a3578082015181840152602081019050610388565b505050509050019250505060405180910390f35b3480156103c357600080fd5b506103e260048036038101908080359060200190929190505050610e1c565b6040518082815260200191505060405180910390f35b34801561040457600080fd5b5061040d610f63565b005b34801561041b57600080fd5b50610450600480360381019080803573ffffffffffffffffffffffffffffffffffffffff169060200190929190505050610fdb565b6040518080602001828103825283818151815260200191508051906020019060200280838360005b83811015610493578082015181840152602081019050610478565b505050509050019250505060405180910390f35b3480156104b357600080fd5b506104d26004803603810190808035906020019092919050505061110d565b005b3480156104e057600080fd5b506104ff60048036038101908080359060200190929190505050611230565b005b34801561050d57600080fd5b5061053a60048036038101908080359060200190820180359060200191909192939192939050505061142b565b005b34801561054857600080fd5b506105516115c3565b604051808215151515815260200191505060405180910390f35b34801561057757600080fd5b506105806115d6565b005b34801561058e57600080fd5b506105ad6004803603810190808035906020019092919050505061166a565b005b3480156105bb57600080fd5b506105f0600480360381019080803573ffffffffffffffffffffffffffffffffffffffff16906020019092919050505061178d565b6040518082815260200191505060405180910390f35b34801561061257600080fd5b50610631600480360381019080803590602001909291905050506117a5565b604051808273ffffffffffffffffffffffffffffffffffffffff1673ffffffffffffffffffffffffffffffffffffffff16815260200191505060405180910390f35b34801561067f57600080fd5b506106886117d8565b604051808273ffffffffffffffffffffffffffffffffffffffff1673ffffffffffffffffffffffffffffffffffffffff16815260200191505060405180910390f35b3480156106d657600080fd5b5061070d600480360381019080803590602001908201803590602001919091929391929390803590602001909291905050506117fd565b005b34801561071b57600080fd5b5061073a60048036038101908080359060200190929190505050611a8d565b604051808481526020018381526020018260ff1660ff168152602001935050505060405180910390f35b34801561077057600080fd5b5061078f60048036038101908080359060200190929190505050611ad3565b005b34801561079d57600080fd5b506107bc60048036038101908080359060200190929190505050611b90565b005b3480156107ca57600080fd5b506107f36004803603810190808035906020019092919080359060200190929190505050611cb3565b005b34801561080157600080fd5b5061082060048036038101908080359060200190929190505050611dc2565b005b34801561082e57600080fd5b5061084d600480360381019080803590602001909291905050506121de565b005b34801561085b57600080fd5b50610864612347565b6040518082815260200191505060405180910390f35b6108826124ae565b6040518082815260200191505060405180910390f35b3480156108a457600080fd5b506108d9600480360381019080803573ffffffffffffffffffffffffffffffffffffffff169060200190929190505050612648565b6040518080602001828103825283818151815260200191508051906020019060200280838360005b8381101561091c578082015181840152602081019050610901565b505050509050019250505060405180910390f35b34801561093c57600080fd5b50610971600480360381019080803573ffffffffffffffffffffffffffffffffffffffff16906020019092919050505061277a565b6040518082815260200191505060405180910390f35b34801561099357600080fd5b506109b260048036038101908080359060200190929190505050612792565b005b3480156109c057600080fd5b506109df6004803603810190808035906020019092919050505061284f565b005b3480156109ed57600080fd5b50610a22600480360381019080803573ffffffffffffffffffffffffffffffffffffffff169060200190929190505050612a70565b005b600b81815481101515610a3357fe5b9060005260206000209060030201600091509050806000018054600181600116156101000203166002900480601f016020809104026020016040519081016040528092919081815260200182805460018160011615610100020316600290048015610adf5780601f10610ab457610100808354040283529160200191610adf565b820191906000526020600020905b815481529060010190602001808311610ac257829003601f168201915b5050505050908060010154908060020160009054906101000a900460ff16905083565b60036020528060005260406000206000915090508054600181600116156101000203166002900480601f016020809104026020016040519081016040528092919081815260200182805460018160011615610100020316600290048015610baa5780601f10610b7f57610100808354040283529160200191610baa565b820191906000526020600020905b815481529060010190602001808311610b8d57829003601f168201915b505050505081565b600d60009054906101000a900460ff16151515610bce57600080fd5b6000600260003373ffffffffffffffffffffffffffffffffffffffff1673ffffffffffffffffffffffffffffffffffffffff16815260200190815260200160002060009054906101000a900460ff1660ff16141515610c2c57600080fd5b6001600260003373ffffffffffffffffffffffffffffffffffffffff1673ffffffffffffffffffffffffffffffffffffffff16815260200190815260200160002060006101000a81548160ff021916908360ff1602179055507f8f4fcbb7de8463ff6224d2eff5b70e3e9f96f72029d4559bd9b8a40690e2fa5233604051808273ffffffffffffffffffffffffffffffffffffffff1673ffffffffffffffffffffffffffffffffffffffff16815260200191505060405180910390a1565b606080600080600460008673ffffffffffffffffffffffffffffffffffffffff1673ffffffffffffffffffffffffffffffffffffffff16815260200190815260200160002054604051908082528060200260200182016040528015610d5e5781602001602082028038833980820191505090505b50925060009150600090505b600b80549050811015610e11578473ffffffffffffffffffffffffffffffffffffffff166005600083815260200190815260200160002060009054906101000a900473ffffffffffffffffffffffffffffffffffffffff1673ffffffffffffffffffffffffffffffffffffffff161415610e0457808383815181101515610ded57fe5b906020019060200201818152505081806001019250505b8080600101915050610d6a565b829350505050919050565b6000600d60009054906101000a900460ff16151515610e3a57600080fd5b600160003373ffffffffffffffffffffffffffffffffffffffff1673ffffffffffffffffffffffffffffffffffffffff168152602001908152602001600020548211151515610e8857600080fd5b81600160003373ffffffffffffffffffffffffffffffffffffffff1673ffffffffffffffffffffffffffffffffffffffff168152602001908152602001600020600082825403925050819055503373ffffffffffffffffffffffffffffffffffffffff166108fc839081150290604051600060405180830381858888f19350505050158015610f1b573d6000803e3d6000fd5b50600160003373ffffffffffffffffffffffffffffffffffffffff1673ffffffffffffffffffffffffffffffffffffffff168152602001908152602001600020549050919050565b6000809054906101000a900473ffffffffffffffffffffffffffffffffffffffff1673ffffffffffffffffffffffffffffffffffffffff163373ffffffffffffffffffffffffffffffffffffffff16141515610fbe57600080fd5b6000600d60006101000a81548160ff021916908315150217905550565b606080600080600660008673ffffffffffffffffffffffffffffffffffffffff1673ffffffffffffffffffffffffffffffffffffffff1681526020019081526020016000205460405190808252806020026020018201604052801561104f5781602001602082028038833980820191505090505b50925060009150600090505b600b80549050811015611102578473ffffffffffffffffffffffffffffffffffffffff166008600083815260200190815260200160002060009054906101000a900473ffffffffffffffffffffffffffffffffffffffff1673ffffffffffffffffffffffffffffffffffffffff1614156110f5578083838151811015156110de57fe5b906020019060200201818152505081806001019250505b808060010191505061105b565b829350505050919050565b600d60009054906101000a900460ff1615151561112957600080fd5b60028060003373ffffffffffffffffffffffffffffffffffffffff1673ffffffffffffffffffffffffffffffffffffffff16815260200190815260200160002060009054906101000a900460ff1660ff1614151561118657600080fd5b3373ffffffffffffffffffffffffffffffffffffffff166009600083815260200190815260200160002060009054906101000a900473ffffffffffffffffffffffffffffffffffffffff1673ffffffffffffffffffffffffffffffffffffffff161415156111f357600080fd5b6001600c8281548110151561120457fe5b906000526020600020906003020160020160006101000a81548160ff021916908360ff16021790555050565b600d60009054906101000a900460ff1615151561124c57600080fd5b6001600260003373ffffffffffffffffffffffffffffffffffffffff1673ffffffffffffffffffffffffffffffffffffffff16815260200190815260200160002060009054906101000a900460ff1660ff161415156112aa57600080fd5b3373ffffffffffffffffffffffffffffffffffffffff166008600083815260200190815260200160002060009054906101000a900473ffffffffffffffffffffffffffffffffffffffff1673ffffffffffffffffffffffffffffffffffffffff1614151561131757600080fd5b6000600c8281548110151561132857fe5b906000526020600020906003020160020160009054906101000a900460ff1660ff161415156113e5576040517f08c379a00000000000000000000000000000000000000000000000000000000081526004018080602001828103825260388152602001807f596f7572206f7264657220697320616c72656164792070726570617265642c2081526020017f64656c6976657265642c206f722063616e63656c6c656421000000000000000081525060400191505060405180910390fd5b6113ee81612bc5565b6003600c828154811015156113ff57fe5b906000526020600020906003020160020160006101000a81548160ff021916908360ff16021790555050565b600d60009054906101000a900460ff1615151561144757600080fd5b6000600260003373ffffffffffffffffffffffffffffffffffffffff1673ffffffffffffffffffffffffffffffffffffffff16815260200190815260200160002060009054906101000a900460ff1660ff161480156114aa575060008282905014155b15156114b557600080fd5b60028060003373ffffffffffffffffffffffffffffffffffffffff1673ffffffffffffffffffffffffffffffffffffffff16815260200190815260200160002060006101000a81548160ff021916908360ff1602179055508181600360003373ffffffffffffffffffffffffffffffffffffffff1673ffffffffffffffffffffffffffffffffffffffff168152602001908152602001600020919061155b92919061302c565b507f58a940b11a9b7397be0cebcbd06da18855572c37f9befe55d26f53f71c99423833604051808273ffffffffffffffffffffffffffffffffffffffff1673ffffffffffffffffffffffffffffffffffffffff16815260200191505060405180910390a15050565b600d60009054906101000a900460ff1681565b6000809054906101000a900473ffffffffffffffffffffffffffffffffffffffff1673ffffffffffffffffffffffffffffffffffffffff163373ffffffffffffffffffffffffffffffffffffffff1614151561163157600080fd5b600d60009054906101000a900460ff1615151561164d57600080fd5b6001600d60006101000a81548160ff021916908315150217905550565b600d60009054906101000a900460ff1615151561168657600080fd5b60028060003373ffffffffffffffffffffffffffffffffffffffff1673ffffffffffffffffffffffffffffffffffffffff16815260200190815260200160002060009054906101000a900460ff1660ff161415156116e357600080fd5b3373ffffffffffffffffffffffffffffffffffffffff166005600083815260200190815260200160002060009054906101000a900473ffffffffffffffffffffffffffffffffffffffff1673ffffffffffffffffffffffffffffffffffffffff1614151561175057600080fd5b6000600b8281548110151561176157fe5b906000526020600020906003020160020160006101000a81548160ff021916908360ff16021790555050565b600a6020528060005260406000206000915090505481565b60056020528060005260406000206000915054906101000a900473ffffffffffffffffffffffffffffffffffffffff1681565b6000809054906101000a900473ffffffffffffffffffffffffffffffffffffffff1681565b6000600d60009054906101000a900460ff1615151561181b57600080fd5b60028060003373ffffffffffffffffffffffffffffffffffffffff1673ffffffffffffffffffffffffffffffffffffffff16815260200190815260200160002060009054906101000a900460ff1660ff1614151561187857600080fd5b6000848490501415151561188b57600080fd5b6001600b60606040519081016040528087878080601f0160208091040260200160405190810160405280939291908181526020018383808284378201915050505050508152602001858152602001600160ff168152509080600181540180825580915050906001820390600052602060002090600302016000909192909190915060008201518160000190805190602001906119289291906130ac565b506020820151816001015560408201518160020160006101000a81548160ff021916908360ff1602179055505050039050336005600083815260200190815260200160002060006101000a81548173ffffffffffffffffffffffffffffffffffffffff021916908373ffffffffffffffffffffffffffffffffffffffff160217905550600460003373ffffffffffffffffffffffffffffffffffffffff1673ffffffffffffffffffffffffffffffffffffffff168152602001908152602001600020600081548092919060010191905055507fc31f154fa3de3b2fdf76e6d4f2549c1ec24c251c36ab57d3e86375b1264167be8185853360405180858152602001806020018373ffffffffffffffffffffffffffffffffffffffff1673ffffffffffffffffffffffffffffffffffffffff168152602001828103825285858281815260200192508082843782019150509550505050505060405180910390a150505050565b600c81815481101515611a9c57fe5b90600052602060002090600302016000915090508060000154908060010154908060020160009054906101000a900460ff16905083565b6000809054906101000a900473ffffffffffffffffffffffffffffffffffffffff1673ffffffffffffffffffffffffffffffffffffffff163373ffffffffffffffffffffffffffffffffffffffff16141515611b2e57600080fd5b600d60009054906101000a900460ff16151515611b4a57600080fd5b611b5381612cda565b6004600c82815481101515611b6457fe5b906000526020600020906003020160020160006101000a81548160ff021916908360ff16021790555050565b600d60009054906101000a900460ff16151515611bac57600080fd5b60028060003373ffffffffffffffffffffffffffffffffffffffff1673ffffffffffffffffffffffffffffffffffffffff16815260200190815260200160002060009054906101000a900460ff1660ff16141515611c0957600080fd5b3373ffffffffffffffffffffffffffffffffffffffff166005600083815260200190815260200160002060009054906101000a900473ffffffffffffffffffffffffffffffffffffffff1673ffffffffffffffffffffffffffffffffffffffff16141515611c7657600080fd5b6001600b82815481101515611c8757fe5b906000526020600020906003020160020160006101000a81548160ff021916908360ff16021790555050565b600d60009054906101000a900460ff16151515611ccf57600080fd5b60028060003373ffffffffffffffffffffffffffffffffffffffff1673ffffffffffffffffffffffffffffffffffffffff16815260200190815260200160002060009054906101000a900460ff1660ff16141515611d2c57600080fd5b3373ffffffffffffffffffffffffffffffffffffffff166005600084815260200190815260200160002060009054906101000a900473ffffffffffffffffffffffffffffffffffffffff1673ffffffffffffffffffffffffffffffffffffffff16141515611d9957600080fd5b80600b83815481101515611da957fe5b9060005260206000209060030201600101819055505050565b6000600d60009054906101000a900460ff16151515611de057600080fd5b6001600260003373ffffffffffffffffffffffffffffffffffffffff1673ffffffffffffffffffffffffffffffffffffffff16815260200190815260200160002060009054906101000a900460ff1660ff16141515611e3e57600080fd5b6001600b83815481101515611e4f57fe5b906000526020600020906003020160020160009054906101000a900460ff1660ff16141515611e7d57600080fd5b6001600c60606040519081016040528085815260200160008152602001600060ff1681525090806001815401808255809150509060018203906000526020600020906003020160009091929091909150600082015181600001556020820151816001015560408201518160020160006101000a81548160ff021916908360ff1602179055505050039050336008600083815260200190815260200160002060006101000a81548173ffffffffffffffffffffffffffffffffffffffff021916908373ffffffffffffffffffffffffffffffffffffffff160217905550600660003373ffffffffffffffffffffffffffffffffffffffff1673ffffffffffffffffffffffffffffffffffffffff168152602001908152602001600020600081548092919060010191905055506005600083815260200190815260200160002060009054906101000a900473ffffffffffffffffffffffffffffffffffffffff166009600083815260200190815260200160002060006101000a81548173ffffffffffffffffffffffffffffffffffffffff021916908373ffffffffffffffffffffffffffffffffffffffff160217905550600760006005600085815260200190815260200160002060009054906101000a900473ffffffffffffffffffffffffffffffffffffffff1673ffffffffffffffffffffffffffffffffffffffff1673ffffffffffffffffffffffffffffffffffffffff168152602001908152602001600020600081548092919060010191905055506120b881612def565b7fdc3effd7f2b46d1989f8b9ec5abba2e3c07eaa9caa9511c8af3c9444ecbb52f28183600b600c858154811015156120ec57fe5b90600052602060002090600302016000015481548110151561210a57fe5b906000526020600020906003020160010154336009600087815260200190815260200160002060009054906101000a900473ffffffffffffffffffffffffffffffffffffffff16604051808681526020018581526020018481526020018373ffffffffffffffffffffffffffffffffffffffff1673ffffffffffffffffffffffffffffffffffffffff1681526020018273ffffffffffffffffffffffffffffffffffffffff1673ffffffffffffffffffffffffffffffffffffffff1681526020019550505050505060405180910390a15050565b600d60009054906101000a900460ff161515156121fa57600080fd5b60028060003373ffffffffffffffffffffffffffffffffffffffff1673ffffffffffffffffffffffffffffffffffffffff16815260200190815260200160002060009054906101000a900460ff1660ff1614151561225757600080fd5b3373ffffffffffffffffffffffffffffffffffffffff166009600083815260200190815260200160002060009054906101000a900473ffffffffffffffffffffffffffffffffffffffff1673ffffffffffffffffffffffffffffffffffffffff161480156122f657506002600c828154811015156122d157fe5b906000526020600020906003020160020160009054906101000a900460ff1660ff1610155b151561230157600080fd5b61230a81612bc5565b6003600c8281548110151561231b57fe5b906000526020600020906003020160020160006101000a81548160ff021916908360ff16021790555050565b60006001600260003373ffffffffffffffffffffffffffffffffffffffff1673ffffffffffffffffffffffffffffffffffffffff16815260200190815260200160002060009054906101000a900460ff1660ff1614806123f5575060028060003373ffffffffffffffffffffffffffffffffffffffff1673ffffffffffffffffffffffffffffffffffffffff16815260200190815260200160002060009054906101000a900460ff1660ff16145b1515612469576040517f08c379a00000000000000000000000000000000000000000000000000000000081526004018080602001828103825260198152602001807f526567697374657220617320612075736572206669727374210000000000000081525060200191505060405180910390fd5b600160003373ffffffffffffffffffffffffffffffffffffffff1673ffffffffffffffffffffffffffffffffffffffff16815260200190815260200160002054905090565b6000600d60009054906101000a900460ff161515156124cc57600080fd5b6001600260003373ffffffffffffffffffffffffffffffffffffffff1673ffffffffffffffffffffffffffffffffffffffff16815260200190815260200160002060009054906101000a900460ff1660ff161480156125ab5750600160003373ffffffffffffffffffffffffffffffffffffffff1673ffffffffffffffffffffffffffffffffffffffff1681526020019081526020016000205434600160003373ffffffffffffffffffffffffffffffffffffffff1673ffffffffffffffffffffffffffffffffffffffff168152602001908152602001600020540110155b15156125b657600080fd5b34600160003373ffffffffffffffffffffffffffffffffffffffff1673ffffffffffffffffffffffffffffffffffffffff16815260200190815260200160002060008282540192505081905550600160003373ffffffffffffffffffffffffffffffffffffffff1673ffffffffffffffffffffffffffffffffffffffff16815260200190815260200160002054905090565b606080600080600760008673ffffffffffffffffffffffffffffffffffffffff1673ffffffffffffffffffffffffffffffffffffffff168152602001908152602001600020546040519080825280602002602001820160405280156126bc5781602001602082028038833980820191505090505b50925060009150600090505b600b8054905081101561276f578473ffffffffffffffffffffffffffffffffffffffff166009600083815260200190815260200160002060009054906101000a900473ffffffffffffffffffffffffffffffffffffffff1673ffffffffffffffffffffffffffffffffffffffff1614156127625780838381518110151561274b57fe5b906020019060200201818152505081806001019250505b80806001019150506126c8565b829350505050919050565b60046020528060005260406000206000915090505481565b6000809054906101000a900473ffffffffffffffffffffffffffffffffffffffff1673ffffffffffffffffffffffffffffffffffffffff163373ffffffffffffffffffffffffffffffffffffffff161415156127ed57600080fd5b600d60009054906101000a900460ff1615151561280957600080fd5b61281281612bc5565b6004600c8281548110151561282357fe5b906000526020600020906003020160020160006101000a81548160ff021916908360ff16021790555050565b600d60009054906101000a900460ff1615151561286b57600080fd5b6001600260003373ffffffffffffffffffffffffffffffffffffffff1673ffffffffffffffffffffffffffffffffffffffff16815260200190815260200160002060009054906101000a900460ff1660ff161415156128c957600080fd5b3373ffffffffffffffffffffffffffffffffffffffff166008600083815260200190815260200160002060009054906101000a900473ffffffffffffffffffffffffffffffffffffffff1673ffffffffffffffffffffffffffffffffffffffff1614801561296757506001600c8281548110151561294357fe5b906000526020600020906003020160020160009054906101000a900460ff1660ff16145b151561297257600080fd5b61297b81612cda565b6002600c8281548110151561298c57fe5b906000526020600020906003020160020160006101000a81548160ff021916908360ff1602179055507f54e432bca54e5802b66a27d950e398dd4c619f8eb1730140232504f571dc25dc816040518082815260200191505060405180910390a16001600a60006009600085815260200190815260200160002060009054906101000a900473ffffffffffffffffffffffffffffffffffffffff1673ffffffffffffffffffffffffffffffffffffffff1673ffffffffffffffffffffffffffffffffffffffff1681526020019081526020016000206000828254019250508190555050565b6000809054906101000a900473ffffffffffffffffffffffffffffffffffffffff1673ffffffffffffffffffffffffffffffffffffffff163373ffffffffffffffffffffffffffffffffffffffff16141515612acb57600080fd5b600073ffffffffffffffffffffffffffffffffffffffff168173ffffffffffffffffffffffffffffffffffffffff1614151515612b0757600080fd5b8073ffffffffffffffffffffffffffffffffffffffff166000809054906101000a900473ffffffffffffffffffffffffffffffffffffffff1673ffffffffffffffffffffffffffffffffffffffff167f8be0079c531659141344cd1fd0a4f28419497f9722a3daafe3b4186f6b6457e060405160405180910390a3806000806101000a81548173ffffffffffffffffffffffffffffffffffffffff021916908373ffffffffffffffffffffffffffffffffffffffff16021790555050565b600d60009054906101000a900460ff16151515612be157600080fd5b6000600c82815481101515612bf257fe5b90600052602060002090600302016001015410151515612c1157600080fd5b600c81815481101515612c2057fe5b906000526020600020906003020160010154600160006008600085815260200190815260200160002060009054906101000a900473ffffffffffffffffffffffffffffffffffffffff1673ffffffffffffffffffffffffffffffffffffffff1673ffffffffffffffffffffffffffffffffffffffff168152602001908152602001600020600082825401925050819055506000600c82815481101515612cc257fe5b90600052602060002090600302016001018190555050565b600d60009054906101000a900460ff16151515612cf657600080fd5b6000600c82815481101515612d0757fe5b90600052602060002090600302016001015410151515612d2657600080fd5b600c81815481101515612d3557fe5b906000526020600020906003020160010154600160006009600085815260200190815260200160002060009054906101000a900473ffffffffffffffffffffffffffffffffffffffff1673ffffffffffffffffffffffffffffffffffffffff1673ffffffffffffffffffffffffffffffffffffffff168152602001908152602001600020600082825401925050819055506000600c82815481101515612dd757fe5b90600052602060002090600302016001018190555050565b600d60009054906101000a900460ff16151515612e0b57600080fd5b600b600c82815481101515612e1c57fe5b906000526020600020906003020160000154815481101515612e3a57fe5b906000526020600020906003020160010154600160006008600085815260200190815260200160002060009054906101000a900473ffffffffffffffffffffffffffffffffffffffff1673ffffffffffffffffffffffffffffffffffffffff1673ffffffffffffffffffffffffffffffffffffffff1681526020019081526020016000205410151515612ecc57600080fd5b6000600c82815481101515612edd57fe5b906000526020600020906003020160010154141515612efb57600080fd5b600b600c82815481101515612f0c57fe5b906000526020600020906003020160000154815481101515612f2a57fe5b906000526020600020906003020160010154600160006008600085815260200190815260200160002060009054906101000a900473ffffffffffffffffffffffffffffffffffffffff1673ffffffffffffffffffffffffffffffffffffffff1673ffffffffffffffffffffffffffffffffffffffff16815260200190815260200160002060008282540392505081905550600b600c82815481101515612fcc57fe5b906000526020600020906003020160000154815481101515612fea57fe5b906000526020600020906003020160010154600c8281548110151561300b57fe5b90600052602060002090600302016001016000828254019250508190555050565b828054600181600116156101000203166002900490600052602060002090601f016020900481019282601f1061306d57803560ff191683800117855561309b565b8280016001018555821561309b579182015b8281111561309a57823582559160200191906001019061307f565b5b5090506130a8919061312c565b5090565b828054600181600116156101000203166002900490600052602060002090601f016020900481019282601f106130ed57805160ff191683800117855561311b565b8280016001018555821561311b579182015b8281111561311a5782518255916020019190600101906130ff565b5b509050613128919061312c565b5090565b61314e91905b8082111561314a576000816000905550600101613132565b5090565b905600a165627a7a72305820e53c6b0f48cc5ec6a72cc1749259299ee28cf9911cd1d6de6dfe252773dcc51e0029",
  "source": "//Write your own contracts here. Currently compiles using solc v0.4.15+commit.bbb8e64f.\npragma solidity ^0.4.24;\nimport \"./Ownable.sol\";\n\n/**\n * @title FoodDelivery\n * @dev Barebone smart contract for\n * food delivery decentralized application.\n */\ncontract FoodDelivery is Ownable {\n  mapping (address => uint) private balances;\n  mapping (address => uint8) private userTypes;\n  mapping (address => string) public restaurantNames;\n  mapping (address => uint) public restaurantFoodCount;\n  mapping (uint => address) public foodToRestaurant;\n  mapping (address => uint) private customerOrderCount;\n  mapping (address => uint) private restaurantOrderCount;\n  mapping (uint => address) private orderToCustomer;\n  mapping (uint => address) private orderToRestaurant;\n  mapping (address => uint) public successfulDelivery;\n\n  event NewFood(uint foodId, string name, address restaurant);\n  event NewOrder(uint orderId, uint foodId, uint price, address customerAddress, address restaurantAddress);\n  event NewCustomer(address customerAddress);\n  event NewRestaurant(address restaurantAddress);\n  event OrderFinished(uint orderId);\n\n  struct Food {\n    string name;\n    uint price;\n    uint8 avail;\n  }\n\n  struct Order {\n    uint foodId;\n    uint escrowBalance;\n    uint8 status; // 0: Order Made | 1: Prepared | 2: Delivered | 3: Cancelled | 4: Divine Intervention\n  }\n\n  Food[] public foods;\n  Order[] public orders;\n\n  bool public paused = false;\n\n  modifier whenNotPaused() {\n      require(!paused);\n      _;\n   }\n  modifier whenPaused() {\n      require(paused);\n      _;\n  }\n\n  modifier onlyRestaurant {\n      require(userTypes[msg.sender] == 2);\n      _;\n  }\n\n  modifier onlyCustomer {\n      require(userTypes[msg.sender] == 1);\n      _;\n  }\n\n  // Fallback function\n  function () public {\n    revert();\n  }\n\n  // External Functions\n  // User Registration System\n  /* It is intentional that a user can't be both restaurant and a customer.\n   * We don't want people to use their business address for personal usage.\n   * Similar to why people don't use their business savings for personal expenses.\n   */\n\n  /**\n   * @dev Allows the user to register their address as a customer.\n   */\n  function registerCustomer() external whenNotPaused {\n      require(userTypes[msg.sender] == 0);\n      userTypes[msg.sender] = 1;\n      emit NewCustomer(msg.sender);\n  }\n\n  /**\n   * @dev Allows the user to register their address as a restaurant.\n   * @param _restaurantName The name for the new restaurant\n   */\n  function registerRestaurant(string _restaurantName) external whenNotPaused {\n      require(userTypes[msg.sender] == 0 && bytes(_restaurantName).length != 0);\n      userTypes[msg.sender] = 2;\n      restaurantNames[msg.sender] = _restaurantName;\n      emit NewRestaurant(msg.sender);\n  }\n\n  /**\n   * @dev Allows the user to fetch all foods served by a restaurant.\n   * @param _restaurantAddress The address of the restaurant to look for\n   */\n  function getFoodByRestaurant(address _restaurantAddress) external view returns(uint[]) {\n    uint[] memory result = new uint[](restaurantFoodCount[_restaurantAddress]);\n    uint counter = 0;\n    for (uint i = 0; i < foods.length; i++) {\n      if (foodToRestaurant[i] == _restaurantAddress) {\n        result[counter] = i;\n        counter++;\n      }\n    }\n    return result;\n  }\n\n  /**\n   * @dev Allows the user to fetch all orders made by a customer.\n   * @param _customerAddress The address of the customer to look for\n   */\n  function getOrderByCustomer(address _customerAddress) external view returns(uint[]) {\n    uint[] memory result = new uint[](customerOrderCount[_customerAddress]);\n    uint counter = 0;\n    for (uint i = 0; i < foods.length; i++) {\n      if (orderToCustomer[i] == _customerAddress) {\n        result[counter] = i;\n        counter++;\n      }\n    }\n    return result;\n  }\n\n  /**\n   * @dev Allows the user to fetch all orders made for a restaurant.\n   * @param _restaurantAddress The address of the restaurant to look for\n   */\n  function getOrderByRestaurant(address _restaurantAddress) external view returns(uint[]) {\n    uint[] memory result = new uint[](restaurantOrderCount[_restaurantAddress]);\n    uint counter = 0;\n    for (uint i = 0; i < foods.length; i++) {\n      if (orderToRestaurant[i] == _restaurantAddress) {\n        result[counter] = i;\n        counter++;\n      }\n    }\n    return result;\n  }\n\n  // !! RESTAURANT ONLY FUNCTIONS !!\n  /**\n   * @dev Add a new food to the menu.\n   * @param _name The name of the new food.\n   * @param _price The price of the new food.\n   */\n  function newFood(string _name, uint _price) external whenNotPaused onlyRestaurant {\n      require(bytes(_name).length != 0);\n      uint id = foods.push(Food(_name, _price, 1))-1;\n      foodToRestaurant[id] = msg.sender;\n      restaurantFoodCount[msg.sender]++;\n      emit NewFood(id, _name, msg.sender);\n  }\n\n  /**\n   * @dev Change the price of a food item.\n   * @param _foodId The id number of the food item.\n   * @param _newPrice The new price for the food item.\n   */\n  function changePrice(uint _foodId, uint _newPrice) external whenNotPaused onlyRestaurant {\n      require(foodToRestaurant[_foodId] == msg.sender);\n      foods[_foodId].price = _newPrice;\n  }\n\n  /**\n   * @dev Set the food item to available.\n   * @param _foodId The id number of the food item.\n   */\n  function soldIn(uint _foodId) external whenNotPaused onlyRestaurant {\n      require(foodToRestaurant[_foodId] == msg.sender);\n      foods[_foodId].avail = 1;\n  }\n\n  /**\n   * @dev Set the food item to unavailable.\n   * @param _foodId The id number of the food item.\n   */\n  function soldOut(uint _foodId) external whenNotPaused onlyRestaurant {\n      require(foodToRestaurant[_foodId] == msg.sender);\n      foods[_foodId].avail = 0;\n  }\n\n  /**\n   * @dev Set the order status to \"Prepared\".\n   * This prevents user from cancelling their order.\n   * @param _orderId The id number of an order.\n   */\n  function orderPrepared(uint _orderId) external whenNotPaused onlyRestaurant {\n      require(orderToRestaurant[_orderId] == msg.sender);\n      orders[_orderId].status = 1;\n  }\n\n  /**\n   * @dev Set the order status to \"Cancelled\" from the Restaurant side.\n   * This function can be used if a condition prevents delivery to be made.\n   * @param _orderId The id number of an order.\n   */\n  function orderUnavailable(uint _orderId) external whenNotPaused onlyRestaurant {\n      require(orderToRestaurant[_orderId] == msg.sender && orders[_orderId].status >= 2);\n      transferToCustomer(_orderId);\n      orders[_orderId].status = 3;\n  }\n\n  // !! CUSTOMER ONLY FUNCTIONS !!\n  /**\n   * @dev Create a new food order.\n   * @param _foodId The id number of the food item.\n   */\n  function newOrder(uint _foodId) external whenNotPaused onlyCustomer {\n      require(foods[_foodId].avail == 1);\n      uint id = orders.push(Order(_foodId, 0, 0))-1;\n      orderToCustomer[id] = msg.sender;\n      customerOrderCount[msg.sender]++;\n      orderToRestaurant[id] = foodToRestaurant[_foodId];\n      restaurantOrderCount[foodToRestaurant[_foodId]]++;\n      transferToEscrow(id);\n      emit NewOrder(id, _foodId, foods[orders[id].foodId].price, msg.sender, orderToRestaurant[id]);\n  }\n\n  /**\n   * @dev Cancels an order that the user have made.\n   * @param _orderId The id number of an order.\n   */\n  function cancelOrder(uint _orderId) external whenNotPaused onlyCustomer {\n      require(orderToCustomer[_orderId] == msg.sender);\n      require(orders[_orderId].status == 0, 'Your order is already prepared, delivered, or cancelled!');\n      transferToCustomer(_orderId);\n      orders[_orderId].status = 3;\n  }\n\n  /**\n   * @dev Called to declare that food delivery have been made.\n   * @param _orderId The id number of an order.\n   */\n  function finishOrder(uint _orderId) external whenNotPaused onlyCustomer {\n      require(orderToCustomer[_orderId] == msg.sender && orders[_orderId].status == 1);\n      transferToRestaurant(_orderId);\n      orders[_orderId].status = 2;\n      emit OrderFinished(_orderId);\n\n      // For analytics and future implementation\n      successfulDelivery[orderToRestaurant[_orderId]] += 1;\n  }\n\n  // Public Functions\n  // Banking System\n  /**\n   * @dev Allows the user to deposit their ether into the smart contract.\n   * Only customers are allowed to deposit.\n   * @return The new balance of user.\n   */\n  function deposit() public payable whenNotPaused returns (uint) {\n      require(userTypes[msg.sender] == 1 && (balances[msg.sender] + msg.value) >= balances[msg.sender]);\n      balances[msg.sender] += msg.value;\n      return balances[msg.sender];\n  }\n\n  /**\n   * @dev Allows the user to withdraw their balance\n   * @param _withdrawAmount The amount to withdraw\n   * @return The new balance of user.\n   */\n  function withdraw(uint _withdrawAmount) public whenNotPaused returns (uint remainingBal) {\n      require(_withdrawAmount <= balances[msg.sender]);\n      balances[msg.sender] -= _withdrawAmount;\n      msg.sender.transfer(_withdrawAmount); // Automatically reverts state on failure\n      return balances[msg.sender];\n  }\n\n  /**\n   * @dev Allows the user to see their own balance\n   * @return The balance of the user.\n   */\n  function myBalance() constant public returns (uint) {\n      require(userTypes[msg.sender] == 1 || userTypes[msg.sender] == 2, 'Register as a user first!');\n      return balances[msg.sender];\n  }\n\n  /* Private Functions */\n  /**\n   * @dev Transfer balance frome escrow to customer.\n   * @param _orderId The id number of an order.\n   */\n  function transferToCustomer(uint _orderId) private whenNotPaused {\n      require(orders[_orderId].escrowBalance >= 0);\n      balances[orderToCustomer[_orderId]] += orders[_orderId].escrowBalance;\n      orders[_orderId].escrowBalance = 0;\n  }\n\n  /**\n   * @dev Transfer balance from escrow to restaurant.\n   * @param _orderId The id number of an order.\n   */\n  function transferToRestaurant(uint _orderId) private whenNotPaused {\n      require(orders[_orderId].escrowBalance >= 0);\n      balances[orderToRestaurant[_orderId]] += orders[_orderId].escrowBalance;\n      orders[_orderId].escrowBalance = 0;\n  }\n\n  /**\n   * @dev Transfer balance from user to escrow.\n   * @param _orderId The id number of an order.\n   */\n  function transferToEscrow(uint _orderId) private whenNotPaused {\n      require(balances[orderToCustomer[_orderId]] >= foods[orders[_orderId].foodId].price);\n      require(orders[_orderId].escrowBalance == 0);\n      balances[orderToCustomer[_orderId]] -= foods[orders[_orderId].foodId].price;\n      orders[_orderId].escrowBalance +=  foods[orders[_orderId].foodId].price;\n  }\n\n  /* God Mode Function */\n  /**\n   * @dev Allows the owner of the smart contract to pause.\n   * !! Only to be used during emergency or contract upgrade !!\n   */\n  function pause() external onlyOwner whenNotPaused {\n      paused = true;\n  }\n\n  /**\n   * @dev Allows the owner of the smart contract to unpause.\n   * Intentionally set to public so inherited smart contract can trigger the function.\n   */\n  function unpause() public onlyOwner {\n      paused = false;\n  }\n\n  /**\n   * @dev Allows the owner of the smart contrac to\n   * finish an order in case the customer creates fictious address\n   * or didn't want to finish the order after food being delivered.\n   * WARN: Bypasses all check.\n   * @param _orderId The id number of an order.\n   */\n  function forceFinishOrder(uint _orderId) external onlyOwner whenNotPaused {\n      transferToRestaurant(_orderId);\n      orders[_orderId].status = 4;\n  }\n\n  /**\n   * @dev Allows the owner of the smart contract to\n   * cancel an order in case the restaurant didn't deliver\n   * their food.\n   * WARN: Bypasses all check.\n   * @param _orderId The id number of an order.\n   */\n  function forceCancelOrder(uint _orderId) external onlyOwner whenNotPaused {\n      transferToCustomer(_orderId);\n      orders[_orderId].status = 4;\n  }\n}\n",
  "sourcePath": "/Users/smsunarto/Documents/Blockchain/FoodDelivery-Solidity/contracts/FoodDelivery.sol",
  "compiler": {
    "name": "solc",
    "version": "0.4.24+commit.e67f0147.Emscripten.clang"
  },
  "schemaVersion": "2.0.0",
  "updatedAt": "2018-06-28T09:54:21.908Z"
}